:020000040800F2
:100000009005002001010008A11A0008C518000889
:100010009D1A000855010008CD1B000800000000D3
:10002000000000000000000000000000A91A000805
:100030007101000800000000A51A0008AD1A0008B0
:100040001B0100081B0100081B0100081B01000820
:100050001B0100081B0100081B0100081B01000810
:100060001B0100081B0100081B0100081B01000800
:1000700059010008650100081B0100081B01000868
:100080001B0100081B0100081B0100081B010008E0
:100090001B0100081B0100081B0100081B010008D0
:1000A0001B0100081B0100081B0100081B010008C0
:1000B0001B0100081B0100081B0100081B010008B0
:1000C0001B0100081B0100081B0100081B010008A0
:1000D0001B0100081B010008C11B00081B010008D0
:1000E0001B0100081B0100081B010008DFF80CD0F1
:1000F00000F018F800480047D11B000890050020C8
:100100000648804706480047FEE7FEE7FEE7FEE7B1
:10011000FEE7FEE7FEE7FEE7FEE7FEE7B11A0008AE
:10012000ED0000081CB509480090094801900546FB
:10013000009C06E0E06840F0010394E8070098475F
:100140001034AC42F6D3FFF7D5FF0000901C000836
:10015000B01C0008FEE7000040F21000C2F20000F0
:1001600000F08EB840F25400C2F2000000F088B8EF
:1001700070470000EFF3108072B600BFFEE700008A
:10018000014690F82100022816D10868D1E90FC372
:10019000026822F00E020260026822F00102026090
:1001A000012000FA03F2CCF8042081F8210000209D
:1001B000002281F82020704704208863012000225B
:1001C00081F820207047000090F82110022923D1E7
:1001D000026840F2040C1168C4F2020C21F00E0116
:1001E000116013682F21C4F202018A4223F0010337
:1001F000136015DD3023C4F202039A421CD044235D
:10020000C4F202039A421BD05823C4F202039A425A
:100210001CD14FF4803321E0042181630120704719
:100220000823C4F202039A420ED01C23C4F2020334
:100230009A420BD1102311E04FF480730EE000BFFF
:100240004FF480530AE000BF012307E00CF168017E
:100250004FF080738A4208BF4FF480130121CCF81D
:10026000003080F82110416B0022002980F8202006
:1002700004BF0020704780B58847002080BD000083
:1002800010B5D0E90FCE0168DCF800300A6823FA17
:100290000EF35C072AD512F0040427D00A689206F0
:1002A00003D40A6822F004020A602F22C4F2020278
:1002B000914240F20402C4F202025BDD3023C4F238
:1002C0000203994272D04423C4F20203994273D0CC
:1002D0005823C4F20203994240F07A804FF48023FD
:1002E0001360C16A002940F098806FE09C0727D511
:1002F00012F0020424D00A68920606D40A6822F09A
:100300000A020A60012280F821202F22C4F2020290
:10031000914240F20402C4F202023BDD3023C4F2F7
:100320000203994260D04423C4F2020399425FD091
:100330005823C4F20203994260D14FF4003365E0C0
:100340001B0743D512F0080208BF10BD0A6822F04F
:100350000E020A60012101FA0EF2CCF8042081633A
:1003600080F82110016B0022002980F8202054D150
:100370002CE000BF0823C4F20203994222D01C23C0
:10038000C4F20203994223D140231360C16A0029B9
:1003900043D11BE00823C4F2020399422CD01C2352
:1003A000C4F20203994229D120232FE04FF4806345
:1003B0001360C16A89BB09E04FF480431360C16ACE
:1003C00059BB03E004231360C16A31BB10BD00BFF9
:1003D00002F168044FF08063A14208BF4FF480032C
:1003E0001360C16AC9B9F1E74FF400730EE000BFB2
:1003F0004FF400530AE000BF022307E002F1680453
:100400004FF00073A14208BF4FF400131360816ADC
:100410000022002980F82020D8D0BDE810400847ED
:10042000014600284FF0010008BF70472DE9F04356
:10043000D1F800C04FF6F873CBF6FD734CF6CD4201
:100440006344CCF6CC42A3FB02236FF0030202EA22
:1004500093020023C4F2020301F10C08C1E90F3238
:100460000222D1E9019E98E8F00181F82120DCF810
:10047000002043F6F0739A4342EA090242EA0E0270
:1004800022432A4332433A4342EA0802CCF800208E
:1004900000228A6381F8210081F820200020BDE835
:1004A000F04370472DE9F04F82B00E68002E00F047
:1004B000FD8041F20042C4F20102042340F2004EEA
:1004C000904208BF03234FF6FF7CC4F2010E009355
:1004D00000240123C1F2100C4FF0000A4FF0000974
:1004E0004BE000BF41F20002C4F20102009F9042C3
:1004F00008BF022704F00C030F229A402BEA0202E5
:1005000007FA03F34FEA9A051A4346F825204E6886
:1005100040F20C45F202DEF8082054BF22EA08023D
:1005200042EA0802C4F20105CEF808202A68B302A4
:1005300054BF22EA080242EA08022A60B303DEF846
:10054000042054BF22EA080242EA0802F303CEF86C
:100550000420DEF800204FF0010354BF22EA080215
:1005600042EA0802CEF800200E680AF1010A36FAC3
:100570000AF204F1040400F0998003FA0AFB16EA77
:100580000B08F1D04E68664512DC122E56D8DFE813
:1005900006F0350B4D49555555555555555555553D
:1005A00055555545510000BFD1F80C9046E000BFAD
:1005B0004FF6FF72C1F2210296420FDC0022C1F217
:1005C000110296421AD00022C1F21202964215D0B0
:1005D0000022C1F22102964210D02FE00022C1F287
:1005E000220296420AD00022C1F23102964205D080
:1005F0000022C1F23202964220D100BF8A684AB17D
:10060000012A14BFC0F814B0C0F810B04FF00809A8
:1006100014E000BF4FF0040910E000BFCA6802F107
:1006200004090BE04FF0000908E000BFCA6802F1BE
:10063000080903E0CA6802F10C0900BF0246264619
:10064000B8F5807F24BF0432203E17680F25B540DF
:1006500027EA050509FA06F635431560CA79D20678
:100660007FF582AF41F21803C4F202031A68AEF5B7
:100670007E7642F001021A601A6802F001020192CD
:10068000019A2AF0030256F802B040F60002C4F2C2
:100690000102904208D040F60042C4F201029042AA
:1006A0007FF420AF012725E7002723E702B0BDE84C
:1006B000F08F0000002A08BF0904016170470000A4
:1006C00040F28C10C2F2000000687047002804BF9E
:1006D00001207047F0B581B0044690F83D0028B97C
:1006E000002084F83C00204600F0A2F8242084F882
:1006F0003D002068016821F001010160016841F4BA
:1007000000410160016821F40041016000F05AFAE3
:10071000636848F2A16CC0F2010C40F60011C0F20F
:100720003D0163453CBF48F28041C0F21E01884252
:1007300002D2012001B0F0BD4DF68361C4F21B313D
:10074000A0FB01122168970CD1F804E04FF49676D3
:100750002EF03F0545EA92454D60774348F638163E
:100760000D6AC0F24106A7FB067625F03F076345F8
:1007700038BF960C721C3A430A62CA6948F2A066F6
:100780004CF6FF77C0F20106B34222EA07020BD80B
:1007900001385B00B0FBF3F001306FF31F30042829
:1007A00098BF04201BE000BFA768013857B1192784
:1007B0007B43B0FBF3F001306FF31F3070B100F5F5
:1007C000804007E003EB4303B0FBF3F001306FF32D
:1007D0001F3018B100F5004001E000BF01201043B8
:1007E000C8610868D4E9072320F0C000104318430B
:1007F0000860886848F2FF3204F10C0790438CCF00
:1008000018431043A6698860C86820F0FF00384389
:100810003043C860086840F00100086000202021D3
:10082000206484F83D10206384F83E0001B0F0BDE0
:1008300010B586B0016845F20040C4F20000814264
:100840004FF00001CDE90411CDE9021102D006B04C
:1008500010BD00BF41F21804C4F20204216800F583
:10086000384041F008012160216801F00801019140
:100870000199C0210291122103910321059102A93E
:10088000FFF710FE606840F400106060606800F4DC
:1008900000100190019806B010BD000040F2000069
:1008A00040F28C11C2F20000C2F2000100780A6826
:1008B000104408607047000080B542F20000C4F2A6
:1008C0000200016841F010010160032000F08CF883
:1008D0000F2000F005F800F027F8002080BD000090
:1008E00070B540F20006C2F2000640F2080132780C
:1008F000C2F200014FF47A730968B3FBF2F20446C6
:10090000B1FBF2F1084600F04FFC0F2C4FF001054F
:1009100008D838B94FF0FF3021460022002500F0FA
:1009200037F87460284670BD82B041F21800C4F2F6
:1009300002000168022241F001010160016801F03A
:10094000010101910199416841F080514160406885
:1009500000F08050009000980420C4F2010001686B
:1009600062F31A61016002B070470000002848BFBE
:10097000704700F01F01012202FA01F11C2202EA75
:10098000D0004EF20012CEF20002815070470000FB
:1009900010B54EF60C5CCEF2000CDCF80030C3F360
:1009A000022E8EF00704042C28BF0424BEF103039A
:1009B0004FF0FF3E0EFA04F438BF0023A1439940E4
:1009C0000EFA03F39A43114300F00F0200F1604363
:1009D0000901043A03F564436244002848BF02F168
:1009E0000C03197010BD00004EF60C51CEF2000140
:1009F0000A684FF6FF031A4060F30A2242F0806053
:100A000040F0FD7008607047002804BF0120704767
:100A10002DE9F04381B042F20008C4F20208044616
:100A2000D8F800000D4600F0070081420CD9D8F834
:100A3000000020F007002843C8F80000D8F80000A4
:100A400000F00700A8426CD1206841F20409810738
:100A5000C4F2020917D5410705D5D9F8001041F4B1
:100A6000E061C9F80010010705D5D9F8001041F47C
:100A70006051C9F80010D9F80010A26821F0F00107
:100A80001143C9F80010C00742D1D8F8000000F0A7
:100A9000070085420CD2D8F8000020F00700284358
:100AA000C8F80000D8F8000000F00700A84238D1CC
:100AB0002068410707D5D9F80010E26821F4E06109
:100AC0001143C9F80010000708D5D9F800002169C2
:100AD00020F4605040EAC100C9F80000D9F80020B5
:100AE00002F00C00082841F20020C0F27A004DD13B
:100AF00041F67E43C2F38341C0F60003595CD20342
:100B000038D440F60010C0F23D0048433EE000BF3C
:100B1000606859F8041C022808D0012826D18903EE
:100B200006D4012001B0BDE8F08300BF8901F8D5EB
:100B3000D9F8001021F003010843C9F80000FFF7BD
:100B4000BFFD064641F28837D9F80000616800F021
:100B50000C00B0EB810F98D0FFF7B2FD801BB842BC
:100B6000F2D9032001B0BDE8F08300BF8907D8D5D2
:100B7000DEE700BFD9F8002041F67C43C2F34042D3
:100B8000C0F600039A5C4843B0FBF2F0D9F80010BD
:100B900041F66442C1F30311C0F60002515C40F219
:100BA000080220FA01F140F20400C2F200000068DD
:100BB000C2F200021160FFF793FE002001B0BDE811
:100BC000F083000040F2080041F20401C2F200008C
:100BD000C4F202010068096841F67442C1F30221BF
:100BE000C0F60002515CC8407047000040F20800A7
:100BF00041F20401C2F20000C4F202010068096877
:100C000041F67442C1F3C221C0F60002515CC840F3
:100C100070470000002804BF012070472DE9F04113
:100C200082B00446007841F20006C007C4F2020612
:100C30000CD0706800F00C00042840F0818030680F
:100C4000800303D56068002800F046812078800783
:100C50001BD5706810F00C0F09D0706800F00C0004
:100C6000082840F087807068C00300F183803068F6
:100C7000800703D52069012840F02E813068616922
:100C800020F0F80040EAC10030602078000713D45B
:100C9000207840072CD4E569002D00F01881706899
:100CA00000F00C00082840F0A780012D40F00481DE
:100CB000012002B0BDE8F081A069002800F0848026
:100CC0000020C4F242200121C0F88014FFF7F8FC94
:100CD000054600BF706A800700F1B280FFF7F0FCA4
:100CE000401B0228F6D9032002B0BDE8F08100BF06
:100CF000F0695FEAC00808D4F06940F08050F06104
:100D0000F06900F080500090009847F20007C4F2AC
:100D100000073868C00549D4386840F480703860EE
:100D2000FFF7CEFC054600BF3868C0053ED4FFF78C
:100D3000C7FC401B6428F7D9032002B0BDE8F0814E
:100D4000706800F00C00082803D17068C0033FF5FC
:100D500076AF61683068002900F00C81B1F5A02FF2
:100D600000F00081B1F5803F40F01A8140F48030FE
:100D70001CE100BF2069002840F20000C4F24220BC
:100D800000F0888001210160FFF79AFC054600BF52
:100D9000306880073FF572AFFFF792FC401B0228D6
:100DA000F6D9032002B0BDE8F08100BFE168306AE7
:100DB000002900F09D80052900F09280012940F073
:100DC000AF8040F00100B1E00020C4F242200021D9
:100DD000C0F88014FFF774FC054600BF706A8007F6
:100DE0007FF556AFFFF76CFC401B0228F6D90320B5
:100DF00002B0BDE8F08100BF0027C4F24227002006
:100E00003866FFF75DFC022D05460DD13068800184
:100E100040F1DE80FFF754FC401B02284FF0030036
:100E2000F4D902B0BDE8F081306880014FD5FFF7FA
:100E300047FC401B02284FF00300F5D9F1E700BF43
:100E400040F20800C2F20000006844F6D351C1F23B
:100E50006201A0FB0101480A019000BF00BF019898
:100E6000411E002801913FF413AF00BF0198411EBD
:100E7000002801913FF40CAF00BF0198411E0028EB
:100E800001913FF405AF00BF0198411E0028019178
:100E9000E4D1FDE600210160FFF712FC054600BF2A
:100EA000306880077FF5F1AEFFF70AFC401B02288F
:100EB0004FF00300F4D9B4E77068216A00F480327F
:100EC0008A4209D1616A00F47010884204D100207E
:100ED00002B0BDE8F08100BF012002B0BDE8F081A2
:100EE00040F004003062306A40F001001EE000BFB4
:100EF00020F001003062306A20F004003062FFF719
:100F0000DFFB054641F28837306A800720D5FFF7BE
:100F1000D7FB401BB8424FF00300F5D981E700BF73
:100F200020F001003062306A20F004003062FFF7E8
:100F3000C7FB054641F28837306A800708D4FFF7BF
:100F4000BFFB401BB842F7D9032002B0BDE8F081D7
:100F5000B8F1000F3FF59FAEF06920F08050F061CE
:100F600099E600BF40F480203060306840F4803063
:100F70001CE000BF20F480303060306820F4802016
:100F80003060FFF79DFB0546306880037FF55EAE5D
:100F9000FFF796FB401B64284FF00300F4D940E7AD
:100FA00020F480303060306820F480203060FFF71B
:100FB00087FB0546306880033FF548AEFFF780FBAE
:100FC000401B6428F6D9032002B0BDE8F08100BFC1
:100FD000206AB0F5803F05D17168A26821F4003124
:100FE000114371607168626A21F4741111430843FE
:100FF000706001203866FFF763FB044630688001AB
:101000003FF565AFFFF75CFB001B02284FF00300C4
:10101000F4D906E770B528B1416A29B10021016110
:10102000142106E0012070BD4168B1F5827F02D035
:101030001C21002242500026866290F8511029B9E6
:1010400080F85060054600F039F82846022180F803
:10105000511090E82E0002F482720C6803F40443ED
:1010600024F040040C601A4405F4006305691A4436
:1010700005F0020345691A4405F001038569C46956
:101080001A4405F400731A4404F03803046A1A443D
:1010900004F08003846A1A4304F400531A430A607C
:1010A000042202EA15424A60CA6922F40062CA6157
:1010B0000121466580F85110304670BD2DE9F0439E
:1010C00085B040F600050446C4F20105006805F548
:1010D0002051002788420497CDE90277019703D079
:1010E00005B0BDE8F08300BF41F21800C4F2020071
:1010F000016801AE41F480510160016840F21C08B2
:1011000001F48051009100990168C4F2020841F095
:10111000040101600068314600F00400009000986E
:10112000A020019002200290032004902846FFF79F
:10113000B9F94020CDE90107284631460397FFF76A
:10114000B1F940F21005C2F2000580264FF40059B3
:101150002846C5E90087C5E90276C5E90477C5E9EF
:101160000679FFF75DF9002818BFFFF703F8E5647B
:101170006C6240F2540508F11400C2F2000510211F
:10118000002285E847002846C5E90422C5E906296A
:10119000FFF746F9002818BFFEF7ECFFA5646C6264
:1011A00005B0BDE8F0830000411E0020B0EB116FD8
:1011B0001CBF012070474EF21002CEF200025160B7
:1011C0004EF62351CEF20001F0230B700721906000
:1011D000116070477047000070470000B0B582B0E2
:1011E00001680A68CC684B6902F02F05202D04F0D5
:1011F000200505D125B102B0BDE8B04000F060BCCB
:101200005FEA027C1EBF03F0010E04F4907313EB3F
:101210000E0341D1036BD50618D5012B16D114F05E
:10122000100313D0002201920A6801924A680192C9
:10123000019A496949064BD4818DC28DC38D002B1B
:1012400018BF914240F0F48102B0B0BD13062DD515
:1012500014F080032AD090F84120212AF4D182682A
:10126000B2F5805F03D10269002A00F06782026A4A
:10127000531C036212784A60C28C013A1304C28480
:10128000E2D1C86820F08000C860C86840F0400023
:10129000C86002B0B0BD00BFD30718BF14F480739C
:1012A00040F0D080530700F1D380D8E05206CBD570
:1012B00014F04002C8D0CA6822F04002CA6020215F
:1012C00080F8411002B0BDE8B04000F0F9BA00BFAC
:1012D000C16B0A68526893B2002BB5D0858DAB42C2
:1012E000B2D2C2858969202900F0A180016851E845
:1012F000031F026821F4807142E80313DBB1016827
:1013000051E8031F026821F4807142E8031393B18E
:10131000016851E8031F026821F4807142E8031359
:101320004BB1016851E8031F026821F4807142E863
:101330000313002BDAD1016851E8051F026821F080
:10134000010142E80513C3B3016851E8051F0268B3
:1013500021F0010142E805137BB3016851E8051F44
:10136000026821F0010142E8051333B3016851E836
:10137000051F026821F0010142E80513002BDAD1B4
:101380001BE000BF016851E8051F026821F0400121
:1013900042E80513DBB1016851E8051F026821F03E
:1013A000400142E8051393B1016851E8051F026846
:1013B00021F0400142E805134BB1016851E8051FD7
:1013C000026821F0400142E80513002BDAD1202108
:1013D00080F8421000210163016851E8031F026890
:1013E00021F0100142E80313DBB1016851E8031F4B
:1013F000026821F0100142E8031393B1016851E83B
:10140000031F026821F0100142E803134BB1016889
:1014100051E8031F026821F0100142E80313002B7A
:10142000DAD1C16B04460846FEF7AAFE2046022127
:101430004163818DC28D891A89B202B0BDE8B04086
:10144000FFF7C8BE436C43F001034364530706D55E
:10145000BEF1000F03D0436C43F0020343649307D3
:1014600006D5BEF1000F03D0436C43F00403436480
:10147000BCF1000F06D55EEA050303D0436C43F0D0
:1014800008034364436C002B3FF4DEAE920605D59F
:1014900025B1044600F014FB216820464969426CDE
:1014A00001F0400102F00802891800F0B98000BF85
:1014B000016851E8031F026821F4907142E80313A8
:1014C000BBB3016851E8031F026821F4907142E840
:1014D000031373B3016851E8031F026821F490718C
:1014E00042E803132BB3016851E8031F026821F49B
:1014F000907142E80313002BDAD11AE0016851E839
:10150000051F026821F0010142E80513DBB1016803
:1015100051E8051F026821F0010142E8051393B16B
:10152000016851E8051F026821F0010142E8051336
:101530004BB1016851E8051F026821F0010142E842
:101540000513002BDAD1016B012924D1016851E880
:10155000031F026821F0100142E80313DBB10168A8
:1015600051E8031F026821F0100142E8031393B110
:10157000016851E8031F026821F0100142E80313DB
:101580004BB1016851E8031F026821F0100142E8E5
:101590000313002BDAD1202180F8421000210163CF
:1015A00001684969490640F1C380016851E8051F97
:1015B000026821F0400142E80513DBB1016851E8FF
:1015C000051F026821F0400142E8051393B101684C
:1015D00051E8051F026821F0400142E805134BB1B4
:1015E000016851E8051F026821F0400142E8051337
:1015F000002BDAD1C16B002900F09A8041F6B522A8
:10160000C0F60002044608464A63FEF7DDFD0028E6
:101610003FF41AAEE06B416B02B0BDE8B040084742
:101620000446FFF7D9FD0020606402B0B0BD00BFE2
:10163000891A00BF026852E8032F036822F49072EF
:1016400043E80325BDB3026852E8032F036822F480
:10165000907243E8032575B3026852E8032F0368CC
:1016600022F4907243E803252DB3026852E8032F59
:10167000036822F4907243E80325002DDAD11AE0C2
:10168000026852E8052F036822F0010243E80525AD
:10169000DDB1026852E8052F036822F0010243E839
:1016A000052595B1026852E8052F036822F0010272
:1016B00043E805254DB1026852E8052F036822F082
:1016C000010243E80525002DDAD1202280F84220CE
:1016D00000220263026852E8032F036822F010021E
:1016E00043E80325DDB1026852E8032F036822F0C6
:1016F000100243E8032595B1026852E8032F0368FE
:1017000022F0100243E803254DB1026852E8032F8E
:10171000036822F0100243E80325002DDAD10222EB
:1017200089B2426302B0BDE8B040FFF753BD00BFCD
:1017300002B0BDE8B040FFF74FBD00BF026A32F80B
:10174000023B6FF35F234B60026295E5002804BF04
:101750000120704710B5044690F8410028B90020D8
:1017600084F84000204600F063F8242084F841000B
:101770002068D4E90212C36823F40053C3600369EC
:1017800023F440531A430261D4E904231143C2688D
:10179000194341F20C639A431143C1604169A26944
:1017A00021F44071114343F60002C4F20102904259
:1017B000416103D0FFF706FA02E000BFFFF716FA17
:1017C000D4E90023192148439900B0FBF1F048F215
:1017D0001F5CC5F2EB1CA0FB0C314FF69C73490952
:1017E000C0F6FF7301FB0300322303EB0010A0FBE4
:1017F0000C03F02000EA531000EB0110C3F3431177
:10180000084490601069202120F4904010615069D4
:1018100020F02A005061D06840F40050D0600020D1
:10182000606484F8411084F84210606310BD0000C9
:1018300070B586B040F60004C4F201040068A4F557
:101840004441002688420596CDE90366029601D000
:1018500006B070BD41F21800C4F20200416802AD4A
:1018600041F400314160416801F400310191019976
:10187000016841F0040101600068294600F004009D
:10188000019001980420029002200390032005900B
:101890002046FEF707FE0820CDE90206204629462D
:1018A0000496FEF7FFFD262000210022FFF770F8C6
:1018B0002620FFF75BF806B070BD000070470000FF
:1018C00070470000FEE7000080B582B041F21400CE
:1018D000C4F202000168002241F0010101600068C9
:1018E000002100F00100019001980C20FFF750F852
:1018F0000C20FFF73BF80D2000210022FFF748F8ED
:101900000D2002B0BDE88040FFF730B82DE9F04768
:1019100086B0002741F21800CDE90477CDE90277BF
:10192000C4F20200016840F6000A41F010010160B3
:101930000168C4F2010A01F01001019101990168E6
:101940000AF5006541F0200101600168002201F004
:1019500020010191019901684FF4005641F0040102
:101960000160016801F0040101910199016841F0F1
:101970000801016000684FF4005100F00800019078
:1019800001982846FEF796FE5046102101224FF09E
:1019900010084FF00109FEF78DFE0296112002AEED
:1019A000CDE903070224284631460594FEF77AFD67
:1019B00050463146CDE90289CDE90474FEF772FD47
:1019C00006B0BDE8F087000080B540F2980045F20F
:1019D0000041C2F20000C4F2000148F2A0620023FC
:1019E0004FF4804CC0F2010280E80E00C0E9033CD5
:1019F000C0E90533C0E90733FEF768FE002808BFD9
:101A000080BDBDE88040FEF7B5BB0000B0B540F238
:101A1000EC0043F20001C2F20000C4F201014FF4F5
:101A20008272002380E80E0000F10C014FF0020CDE
:101A30004FF0010E4FF40074282581E808500A2168
:101A4000C0E90645C0E90833C0E90A31FFF7E2FA08
:101A5000002808BFB0BDBDE8B040FEF78BBB00005A
:101A600080B540F2441044F20041C2F20000C4F2DA
:101A7000000100234FF00C0C4FF4E13280E80E001F
:101A8000C0E90333C0E905C3C361FFF75FFE002867
:101A900008BF80BDBDE88040FEF76CBBFEE70000DC
:101AA000FEE700007047000070470000FEF7F6BE3A
:101AB00070470000406A0021C185C184FFF78CBBDC
:101AC00081B090F84210222921D183680246B3F5F3
:101AD000805F09D152F8281F52F8183C002B63D0C0
:101AE00003685B680AE000BF52F8281F13B9036956
:101AF000002BF5D003685B6803F07F030B7011685F
:101B000001311160C18D01390A04C18502D001B0D3
:101B1000704700BF0168CA6822F02002CA60CA6824
:101B200022F48072CA604A6922F001024A612021CF
:101B300080F8421000214163026B012A3CD101630D
:101B4000016851E8031F026821F0100142E8031305
:101B5000DBB1016851E8031F026821F0100142E87F
:101B6000031393B1016851E8031F026821F01001CB
:101B700042E803134BB1016851E8031F026821F0EA
:101B8000100142E80313002BDAD101680A68D2067B
:101B900006D5002200920A680092496800910099D7
:101BA000818D01B0FFF716BB026852686FF35F22A8
:101BB00021F8022B8162A5E701B0FFF77FBE00008C
:101BC00040F24410C2F20000FFF708BBFEE700003D
:101BD00090B0FEF771FE00240120CDE90B44CDE961
:101BE000094406900A904FF4E0104FF4803102252A
:101BF0000F9006A8CDE90714CDE90D51FFF70AF8BB
:101C000020B1EFF3108072B6FEE700BF0F20CDE9E0
:101C100001054FF48060CDE9040401A8022103947A
:101C2000FEF7F2FE20B1EFF3108072B6FEE700BFC0
:101C3000FFF76CFEFFF748FEFFF7C6FEFFF7E6FE74
:101C4000FFF70EFFFEE702E008C8121F08C1002AD6
:101C5000FAD170477047002001E001C1121F002A2D
:101C6000FBD17047000000000000000001020304E7
:101C70000607080900000000010203040102020334
:101C80000405060708090A0B0C0D0E0F10100000C2
:101C9000B01C00080000002010000000461C0008D6
:101CA000C01C00081000002080050000561C000821
:101CB000010000001000000000127A000000000087
:04000005080000ED02
:00000001FF
