:020000040800F2
:10000000E80D00200101000899390008F9300008C6
:100010009539000889080008BD3C00080000000070
:100020000000000000000000000000008D3B000800
:10003000A5080008000000009D390008913B000859
:100040001B0100081B0100081B0100081B01000820
:100050001B0100081B0100081B0100081B01000810
:100060001B0100081B0100081B0100081B01000800
:100070008D080008990800081B0100081B010008F2
:100080001B0100081B0100081B0100081B010008E0
:100090001B0100081B0100081B0100081B010008D0
:1000A0001B0100081B0100081B0100081B010008C0
:1000B0001B0100081B0100081B0100081B010008B0
:1000C0001B0100081B0100081B0100081B010008A0
:1000D0001B010008A53C0008B13C00081B010008FA
:1000E0001B0100081B0100081B010008DFF80CD0F1
:1000F00000F022FA00480047053D0008E80D002006
:100100000648804706480047FEE7FEE7FEE7FEE7B1
:10011000FEE7FEE7FEE7FEE7FEE7FEE7953B0008A9
:10012000ED000008CAB2401E10F8011F8A4202D03A
:100130000029F9D10020704730B50B460146002058
:100140002022012409E021FA02F59D4205D303FA99
:1001500002F5491B04FA02F52844151EA2F101021A
:10016000F1DC30BD2DE9F05F0546002092469B464C
:1001700088460646814640241BE0284641464746BD
:10018000224600F000FA53465A46C01A914110D355
:1001900011461846224600F0E7F92D1A67EB0108D0
:1001A0004F4622460120002100F0DEF917EB00093E
:1001B0004E41201EA4F10104DFDC484631462A46A8
:1001C0004346BDE8F09F2DE9FE4F804681EA0300DB
:1001D000C00F0C46009021F0004123F00045B8EB21
:1001E0000200A94105D24046214690461C460B46D6
:1001F000024623F00040104347D0270DC7F30A0002
:10020000C3F30A510290401A019040286BDAC3F3FD
:10021000130040F4801B0098924620B10023D2EBDB
:10022000030A63EB0B0B01985946C0F1400250469C
:1002300000F09AF906460D4650465946019A00F0DC
:10024000B2F910EB08006141002487EA115284EAF8
:10025000E7731A4340D0009A62B3019A012A4FEA29
:10026000075215DC001B61EB02014FF0004202EA6D
:100270000752CDE90042001C41F5801132462B4661
:1002800000F0B2F903B0BDE8F08F40462146F9E72F
:10029000001B61EB0201001C41F5801300185B415B
:1002A0002018A2F5001747EB030140EAD570B619F4
:1002B0006D4111E06D084FEA360645EAC0754FEA18
:1002C0000752001B61EB0201001C41F58011490837
:1002D0004FEA30000019514132462B4603B0BDE8C9
:1002E000F04F00F072B90098012240000023D0EBDB
:1002F000020263EBE073009821464FEAE074B8EB2A
:10030000000061EB0401E9E783F000435BE781F063
:10031000004158E72DE9FE4F81EA030404F0004450
:1003200021F0004100944FF0000B23F0004350EA0D
:1003300001045ED052EA03045BD0C3F30A54C1F354
:100340000A552C44A4F2F3340194A0FB0254C1F3E7
:10035000130141F48011C3F3130343F4801301FB31
:10036000024400FB034E840A970A44EA815447EA98
:100370008357A4FB076802958D0A05FB07854FEAA2
:10038000932C04FB0C542705029D4FEA065847EABC
:100390001637B5EB08056EEB070C870E920E47EA91
:1003A000811742EA8312A7FB0201B6EB0B0164EB53
:1003B00000042B0D43EA0C335E1844EB1C50DA4664
:1003C0005146E7FB0201C5F313044FEA0B3343EA3E
:1003D00014534FEA0432019C43EA0603A4F10C04CF
:1003E0000294009CCDE900B400F0FEF803B0BDE833
:1003F000F08F00200146F9E72DE9F04D81EA030472
:1004000004F0004B21F0004514464FF0000A23F0A1
:10041000004150EA050220D054EA01021DD0C5F384
:100420000A570246C5F31303C1F31300C1F30A567A
:1004300040F4801543F48013A7EB0608101BD64642
:1004400008F2FD3873EB050002D308F1010801E062
:1004500092185B41B8F1000F03DA00200146BDE8B5
:10046000F08D00204FF48011064684460EE0171BE5
:1004700073EB050705D3121B63EB050306434CEA38
:10048000010C49084FEA300092185B4150EA01071D
:10049000EDD152EA030012D082EA040083EA05019A
:1004A000084305D0101BAB4106D20122002306E011
:1004B00000224FF0004302E06FF0010253101AEBEC
:1004C00006004CEB085110EB0A0041EB0B01BDE8B4
:1004D000F04D00F07AB8C1F30A52C1F3130140F2B3
:1004E000FF3341F480119A4202DA0020014670473E
:1004F00040F233439A42A2F2334202DC524200F00D
:1005000042B800F031B8000030B5041E71F10004AB
:1005100004DB4FF00044404264EB0101141E73F110
:10052000000405DB1C464FF00043524263EB04031A
:10053000994208BF904230BD1CB509480090094857
:1005400001900546009C06E0E06840F0010394E855
:10055000070098471034AC42F6D3FFF7CBFD0000FC
:100560000048000820480008202A04DB203A00FA4E
:1005700002F1002070479140C2F1200320FA03F3FA
:10058000194390407047202A04DB203A21FA02F0F8
:100590000021704721FA02F3D040C2F120029140BD
:1005A000084319467047202A06DBCB17203A41FA48
:1005B00002F043EAE07306E041FA02F3D040C2F1F0
:1005C0002002914008431946704710B5141E73F17C
:1005D000000408DA401C41F1000192185B411A4303
:1005E00001D120F0010010BD2DE9F04D92469B464F
:1005F00011B1B1FA81F202E0B0FA80F220329046F5
:10060000FFF7B2FF04460F4640EA0A0041EA0B0139
:1006100053465A46084313D0114653EA010019D0F5
:10062000C8F140025046FFF7AEFF05460E46504661
:1006300059464246FFF798FF084305D0012004E0E1
:1006400020463946BDE8F08D0020054346EAE076B5
:100650002C4337430A986305E40AA0EB0800002204
:10066000FD0A44EA47540A3002D500200146E9E772
:10067000010510196941DDE9084500196941BDE826
:10068000F04DA2E710B540F2A000C2F20000A02198
:1006900003224FF47A7300F079FC48B3052000F090
:1006A0009BFA40F2A000C2F20000A02103224FF406
:1006B0007A7300F06BFCD8B1052000F08DFA40F29F
:1006C000A000C2F20000A02103224FF47A7300F0D0
:1006D0005DFC68B10446052000F07EFA44F27670B5
:1006E000C0F60000032103F0A5FB204610BD00BFAB
:1006F00002A004F019F8002010BD00BF41543234AC
:1007000043363420E5889DE5A78BE58C96E68890F6
:10071000E58A9FEFBC810D00F0B585B00746042047
:1007200004A9CDE9001040F2A0004FF47A74C2F29F
:100730000000A02104221023029400F031FD0446A1
:1007400030B111A0214603F075FB204605B0F0BD85
:100750009DF811309DF812509DF8136018029DF815
:10076000102040EA054040EA06601044386044F238
:10077000BC70C0F600000421CDE9005603F05AFB1E
:10078000204605B0F0BD00BFE8AFBBE58F96E5A4FD
:10079000B1E8B4A52120E78AB6E680813A20256435
:1007A0000A00000010B584B0040E0390C1B2C0F37B
:1007B0000722C0F3074314A0009403F03BFB04207E
:1007C00003A9CDE9001040F2A0004FF47A74C2F200
:1007D0000000A02104221023029400F087FE38B10B
:1007E00015A00121012403F025FB204604B010BD13
:1007F000052000F0F1F917A0042103F01BFB0024F1
:10080000204604B010BD00BFE5AD98E582A8E4B86D
:10081000BAE5AD97E88A823A203078253032582000
:1008200030782530325820307825303258203078D2
:10083000253032580A000000E5AD98E582A8E5A40D
:10084000B1E8B4A52120E78AB6E680813A20256484
:100850000A000000E59BBAE4BBB6E5A4A7E5B08FAB
:10086000E68890E58A9FE5AD98E582A8E588B041E5
:10087000543234433634E59CB0E59D803A203078DC
:10088000253034580A000000FEE7000040F218004E
:10089000C2F2000000F08EB840F25C00C2F200002C
:1008A00000F088B870470000EFF3108072B600BF08
:1008B000FEE70000014690F82100022816D10868E2
:1008C000D1E90FC3026822F00E020260026822F032
:1008D00001020260012000FA03F2CCF8042081F842
:1008E00021000020002281F8202070470420886326
:1008F0000120002281F820207047000090F821108C
:10090000022923D1026840F2040C1168C4F2020CDF
:1009100021F00E01116013682F21C4F202018A42F6
:1009200023F00103136015DD3023C4F202039A4261
:100930001CD04423C4F202039A421BD05823C4F2B1
:1009400002039A421CD14FF4803321E004218163D9
:10095000012070470823C4F202039A420ED01C23E0
:10096000C4F202039A420BD1102311E04FF48073BA
:100970000EE000BF4FF480530AE000BF012307E000
:100980000CF168014FF080738A4208BF4FF4801366
:100990000121CCF8003080F82110416B00220029A1
:1009A00080F8202004BF0020704780B588470020D1
:1009B00080BD000010B5D0E90FCE0168DCF8003032
:1009C0000A6823FA0EF35C072AD512F0040427D034
:1009D0000A68920603D40A6822F004020A602F22F1
:1009E000C4F20202914240F20402C4F202025BDD50
:1009F0003023C4F20203994272D04423C4F20203AA
:100A0000994273D05823C4F20203994240F07A808D
:100A10004FF480231360C16A002940F098806FE092
:100A20009C0727D512F0020424D00A68920606D447
:100A30000A6822F00A020A60012280F821202F228F
:100A4000C4F20202914240F20402C4F202023BDD0F
:100A50003023C4F20203994260D04423C4F202035B
:100A600099425FD05823C4F20203994260D14FF4F7
:100A7000003365E01B0743D512F0080208BF10BD24
:100A80000A6822F00E020A60012101FA0EF2CCF887
:100A90000420816380F82110016B0022002980F876
:100AA000202054D12CE000BF0823C4F20203994255
:100AB00022D01C23C4F20203994223D140231360A5
:100AC000C16A002943D11BE00823C4F20203994202
:100AD0002CD01C23C4F20203994229D120232FE0F9
:100AE0004FF480631360C16A89BB09E04FF480430F
:100AF0001360C16A59BB03E004231360C16A31BBB0
:100B000010BD00BF02F168044FF08063A14208BF2E
:100B10004FF480031360C16AC9B9F1E74FF4007361
:100B20000EE000BF4FF400530AE000BF022307E0CD
:100B300002F168044FF00073A14208BF4FF40013A4
:100B40001360816A0022002980F82020D8D0BDE8F7
:100B500010400847014600284FF0010008BF7047C9
:100B60002DE9F043D1F800C04FF6F873CBF6FD73D2
:100B70004CF6CD426344CCF6CC42A3FB02236FF08B
:100B8000030202EA93020023C4F2020301F10C08FB
:100B9000C1E90F320222D1E9019E98E8F00181F803
:100BA0002120DCF8002043F6F0739A4342EA090260
:100BB00042EA0E0222432A4332433A4342EA0802FF
:100BC000CCF8002000228A6381F8210081F82020DF
:100BD0000020BDE8F0437047B0B5044600F01EF9B0
:100BE000054640F20400C2F200000078611C18BF04
:100BF000044400BF00F012F9401BA042FAD3B0BD7C
:100C00002DE9F04F82B00E68002E00F0FD8041F219
:100C10000042C4F20102042340F2004E904208BF99
:100C200003234FF6FF7CC4F2010E0093002401233E
:100C3000C1F2100C4FF0000A4FF000094BE000BF6A
:100C400041F20002C4F20102009F904208BF022755
:100C500004F00C030F229A402BEA020207FA03F376
:100C60004FEA9A051A4346F825204E6840F20C4593
:100C7000F202DEF8082054BF22EA080242EA080223
:100C8000C4F20105CEF808202A68B30254BF22EA54
:100C9000080242EA08022A60B303DEF8042054BFC7
:100CA00022EA080242EA0802F303CEF80420DEF842
:100CB00000204FF0010354BF22EA080242EA080272
:100CC000CEF800200E680AF1010A36FA0AF204F1A1
:100CD000040400F0998003FA0AFB16EA0B08F1D02D
:100CE0004E68664512DC122E56D8DFE806F0350B4A
:100CF0004D495555555555555555555555555545C8
:100D0000510000BFD1F80C9046E000BF4FF6FF72D3
:100D1000C1F2210296420FDC0022C1F2110296427A
:100D20001AD00022C1F21202964215D00022C1F25E
:100D30002102964210D02FE00022C1F222029642F8
:100D40000AD00022C1F23102964205D00022C1F23F
:100D50003202964220D100BF8A684AB1012A14BFEC
:100D6000C0F814B0C0F810B04FF0080914E000BF8C
:100D70004FF0040910E000BFCA6802F104090BE05B
:100D80004FF0000908E000BFCA6802F1080903E05B
:100D9000CA6802F10C0900BF02462646B8F5807FFA
:100DA00024BF0432203E17680F25B54027EA050509
:100DB00009FA06F635431560CA79D2067FF582AF87
:100DC00041F21803C4F202031A68AEF57E7642F0CF
:100DD00001021A601A6802F001020192019A2AF0D7
:100DE000030256F802B040F60002C4F2010290423B
:100DF00008D040F60042C4F2010290427FF420AFD6
:100E0000012725E7002723E702B0BDE8F08F0000A7
:100E1000002A08BF090401617047000040F6E01095
:100E2000C2F2000000687047002804BF012070472C
:100E3000F0B581B0044690F83D0028B9002084F850
:100E40003C00204600F000FC242084F83D0020688F
:100E5000016821F001010160016841F40041016075
:100E6000016821F40041016000F0B8FD636848F2B8
:100E7000A16CC0F2010C40F60011C0F23D016345C7
:100E80003CBF48F28041C0F21E01884202D20120DC
:100E900001B0F0BD4DF68361C4F21B31A0FB01121D
:100EA0002168970CD1F804E04FF496762EF03F05B8
:100EB00045EA92454D60774348F638160D6AC0F210
:100EC0004106A7FB067625F03F07634538BF960C21
:100ED000721C3A430A62CA6948F2A0664CF6FF7770
:100EE000C0F20106B34222EA07020BD801385B00C8
:100EF000B0FBF3F001306FF31F30042898BF0420DB
:100F00001BE000BFA768013857B119277B43B0FB2E
:100F1000F3F001306FF31F3070B100F5804007E04F
:100F200003EB4303B0FBF3F001306FF31F3018B154
:100F300000F5004001E000BF01201043C8610868CF
:100F4000D4E9072320F0C0001043184308608868E4
:100F500048F2FF3204F10C0790438CCF1843104342
:100F6000A6698860C86820F0FF0038433043C86035
:100F7000086840F00100086000202021206484F807
:100F80003D10206384F83E0001B0F0BD2DE9F04F24
:100F900083B01E46924688460446FFF73FFF94F80A
:100FA0003D10202924D12168054600BF88698007AB
:100FB0001AD5FFF733FF401B21681A28F6D388693A
:100FC0008007F3D500202021206384F83D1084F8A9
:100FD0003E00216C41F02001216484F83C00022095
:100FE00003B0BDE8F08F00BF94F83C00012803D1A6
:100FF000022003B0BDE8F08F4FF0010984F83C9067
:101000000868C00703D1086840F00100086008685C
:10101000002720F400600860242084F83D000020B0
:10102000CFF6FF702764E06208F0FE08BAF1010F06
:1010300088BFD1464FF0A00A4FF0200B04E000BF5C
:1010400001374F4500F0A2800868002240F480700C
:10105000086020464FF001113346009502F09AF9DE
:101060002168002856D1C1F81080FFF7D7FE21680B
:101070004B694A6994F83D50A02D054605D013F000
:10108000020008BF12F480601AD084F83DB04869AD
:101090000A68800742F400720A6045D46FF48060E9
:1010A000486100BF88698007CAD5FFF7B7FE401BBB
:1010B00021681A28F6D388698007F3D54AE000BF73
:1010C000B6B100BFFFF7AAFE401BB04288BF84F84C
:1010D0003DA021684A69486994F83D30A02BD4D0DE
:1010E00012F0020208BF10F48060EBD0CDE700BF21
:1010F000FFF794FE84F83DA021684A69486994F896
:101100003D30A02BC1D012F00202BED110F480609D
:10111000EED0BAE70868C00544BF4FF40070206401
:10112000032003B0BDE8F08F0020029048690290D0
:10113000886902900298886901E000BF8069800791
:101140001AD5FFF76BFE411B20681A29F6D3816977
:101150008907F3D500202021206384F83D1084F80E
:101160003E00216C41F02001216484F83C00012004
:1011700003B0BDE8F08F00BF202084F83D000020C0
:1011800084F83C0003B0BDE8F08F00BF202084F855
:101190003D00002084F83C00012003B0BDE8F08F42
:1011A0002DE9F04F85B004460020994616460F46BB
:1011B0000490FFF733FE94F83D10202927D105460F
:1011C000206800BF816989071CD5FFF727FE411BF6
:1011D00020681A29F6D381698907F3D500202021D8
:1011E000206384F83D1084F83E00206C04F13C0A32
:1011F00040F020002064022000218AF8001005B091
:10120000BDE8F08FA2461AF83C1F012904D1022044
:1012100005B0BDE8F08F00BF01228AF80020036806
:10122000DDE90F180E9ADB0703D1036843F00103D1
:101230000360036823F400630360222084F83D0008
:10124000402084F83E000020206462626185608D49
:10125000394620850020CFF6FF70E06220463246F6
:101260004B46CDE9008501F049FF18B1012005B0DA
:10127000BDE8F08F208D022826D001280ED000284E
:1012800038D100200390206841690391816903915E
:101290000399016841F40071016037E0206801683A
:1012A00021F480610160EFF3108072B6002003909A
:1012B000206841690391816903910399016841F4B0
:1012C0000071016062B621E02068016841F40061AC
:1012D0000160EFF3108072B600200390206841692E
:1012E0000391816903910399016821F48061016090
:1012F00062B60BE02068016841F480610160002162
:10130000039141690391806903900398208D00281F
:1013100000F0CC80042740F20C094BF2895BC0F24C
:101320000107C2F20009C1F2F84B23260EE000BF0C
:1013300010690870606A218D01306062481E208546
:10134000618D01396185010400F0B08080B203280D
:101350000CD802282CD001284AD1204641462A46E2
:1013600002F06AF9002800F09C807FE720464146A1
:101370002A4602F061F900287FF478AF2068616A9C
:1013800000690870606A2268411C208D6162013822
:101390002085638D013B638553695B07D3D580B29C
:1013A0000328C5D1106820F480601060C0E700BF3A
:1013B0002046394600224346009501F0EBFF002805
:1013C0007FF454AFEFF3108072B62068616A026850
:1013D00042F40072026000690870606A218D013079
:1013E0006062481E2085608D0138608562B658E0D5
:1013F0002046394600224346009501F0CBFF0028E5
:101400007FF434AF2068016821F480610160EFF35C
:10141000108072B62068616A00690870606A218D68
:101420000130013960622185618D01396185D9F80A
:101430000010C908A1FB0B12110A71430491049911
:1014400001390491049900293CD021684A69520766
:1014500017D4049A013A0492049A9AB34A6952073B
:101460000FD4049A013A0492049A5AB34A69520773
:1014700007D4049A013A0492049A1AB34A695207AB
:10148000DDD50A6842F400720A6009690170606A79
:10149000218D01306062481E2085608D0138608595
:1014A00062B62068616A006943E700BF202084F8C3
:1014B0003D00002084F83E0000218AF8001005B0AD
:1014C000BDE8F08F00202021206384F83D1084F8CF
:1014D0003E00206C40F02000206462B60120002114
:1014E0008AF8001005B0BDE8F08F00002DE9F04348
:1014F00083B0994616460F460446FFF78FFC94F8D2
:101500003D10202924D10546206800BF8169890744
:101510001AD5FFF783FC411B20681A29F6D381698D
:101520008907F3D500202021206384F83D1084F83A
:101530003E00216C41F02001216484F83C0002202F
:1015400003B0BDE8F08300BF94F83C10012903D13B
:10155000022003B0BDE8F083012284F83C20036838
:10156000DDE90B180A9ADB0703D1036843F0010396
:101570000360036823F400630360212084F83D00C6
:10158000402084F83E000020206462626185608D06
:10159000394620850020CFF6FF70E06220463246B3
:1015A0004B46CDE9008501F033FE18B1012003B0B0
:1015B000BDE8F083208D98B9204641462A4601F0C7
:1015C0008BFE88B3206C0428F0D12068016841F4B8
:1015D00000710160012003B0BDE8F0830004EBD08E
:1015E000204641462A4602F06FF80028EAD1616A97
:1015F0002268084610F8013B1361238D6062581E73
:101600002085678D013F678557697F07E6D5070409
:10161000E4D048781061881C6062981E2085618D36
:1016200001396185DAE700BF2068016841F4007183
:101630000160202084F83D00002084F83E0084F8FA
:101640003C0003B0BDE8F08310B586B0016845F2F8
:101650000040C4F2000081424FF00001CDE90411C6
:10166000CDE9021102D006B010BD00BF41F218044E
:10167000C4F20204216800F5384041F008012160FD
:10168000216801F0080101910199C0210291122104
:1016900003910321059102A9FFF7B2FA606840F4B3
:1016A00000106060606800F400100190019806B0BE
:1016B00010BD000040F2040040F6E011C2F200004C
:1016C000C2F2000100780A68104408607047000008
:1016D00080B542F20000C4F20200016841F010013E
:1016E0000160032000F08CF80F2000F005F800F0F6
:1016F00027F8002080BD000070B540F20406C2F259
:10170000000640F20C013278C2F200014FF47A7305
:101710000968B3FBF2F20446B1FBF2F1084600F0AF
:10172000B7FF0F2C4FF0010508D838B94FF0FF3044
:1017300021460022002500F037F87460284670BD6D
:1017400082B041F21800C4F202000168022241F0A6
:1017500001010160016801F00101019101994168F5
:1017600041F080514160406800F080500090009846
:101770000420C4F20100016862F31A61016002B042
:1017800070470000002848BF704700F01F01012289
:1017900002FA01F11C2202EAD0004EF20012CEF24F
:1017A000000281507047000010B54EF60C5CCEF27E
:1017B000000CDCF80030C3F3022E8EF00704042C7A
:1017C00028BF0424BEF103034FF0FF3E0EFA04F4D9
:1017D00038BF0023A14399400EFA03F39A43114303
:1017E00000F00F0200F160430901043A03F564437D
:1017F0006244002848BF02F10C03197010BD0000BC
:101800004EF60C51CEF200010A684FF6FF031A4063
:1018100060F30A2242F0806040F0FD70086070477B
:10182000002804BF012070472DE9F04381B042F247
:101830000008C4F202080446D8F800000D4600F083
:10184000070081420CD9D8F8000020F00700284397
:10185000C8F80000D8F8000000F00700A8426CD1DA
:10186000206841F204098107C4F2020917D5410733
:1018700005D5D9F8001041F4E061C9F8001001075E
:1018800005D5D9F8001041F46051C9F80010D9F815
:101890000010A26821F0F0011143C9F80010C00740
:1018A00042D1D8F8000000F0070085420CD2D8F8E9
:1018B000000020F007002843C8F80000D8F8000016
:1018C00000F00700A84238D12068410707D5D9F8B1
:1018D0000010E26821F4E0611143C9F8001000072C
:1018E00008D5D9F80000216920F4605040EAC10011
:1018F000C9F80000D9F8002002F00C00082841F2D5
:101900000020C0F27A004DD144F26673C2F38341E5
:10191000C0F60003595CD20338D440F60010C0F280
:101920003D0048433EE000BF606859F8041C0228AF
:1019300008D0012826D1890306D4012001B0BDE8D2
:10194000F08300BF8901F8D5D9F8001021F0030118
:101950000843C9F80000FFF761FA064641F28837EC
:10196000D9F80000616800F00C00B0EB810F98D04E
:10197000FFF754FA801BB842F2D9032001B0BDE84A
:10198000F08300BF8907D8D5DEE700BFD9F8002073
:1019900044F26473C2F34042C0F600039A5C4843C9
:1019A000B0FBF2F0D9F8001044F24C72C1F303110D
:1019B000C0F60002515C40F20C0220FA01F140F244
:1019C0000800C2F200000068C2F200021160FFF7D6
:1019D00093FE002001B0BDE8F083000040F20C004F
:1019E00041F20401C2F20000C4F202010068096879
:1019F00044F25C72C1F30221C0F60002515CC8409F
:101A00007047000040F20C0041F20401C2F20000F5
:101A1000C4F202010068096844F25C72C1F3C22199
:101A2000C0F60002515CC84070470000002804BFA7
:101A3000012070472DE9F04182B00446007841F260
:101A40000006C007C4F202060CD0706800F00C005B
:101A5000042840F081803068800303D56068002846
:101A600000F04681207880071BD5706810F00C0FBD
:101A700009D0706800F00C00082840F0878070687A
:101A8000C00300F183803068800703D520690128F6
:101A900040F02E813068616920F0F80040EAC10012
:101AA00030602078000713D4207840072CD4E569F3
:101AB000002D00F01881706800F00C00082840F03C
:101AC000A780012D40F00481012002B0BDE8F08123
:101AD000A069002800F084800020C4F24220012187
:101AE000C0F88014FFF79AF9054600BF706A8007B6
:101AF00000F1B280FFF792F9401B0228F6D90320CB
:101B000002B0BDE8F08100BFF0695FEAC00808D408
:101B1000F06940F08050F061F06900F08050009072
:101B2000009847F20007C4F200073868C00549D49E
:101B3000386840F480703860FFF770F9054600BFE0
:101B40003868C0053ED4FFF769F9401B6428F7D90F
:101B5000032002B0BDE8F081706800F00C00082896
:101B600003D17068C0033FF576AF61683068002923
:101B700000F00C81B1F5A02F00F00081B1F5803F9D
:101B800040F01A8140F480301CE100BF2069002839
:101B900040F20000C4F2422000F088800121016080
:101BA000FFF73CF9054600BF306880073FF572AF8C
:101BB000FFF734F9401B0228F6D9032002B0BDE834
:101BC000F08100BFE168306A002900F09D8005299E
:101BD00000F09280012940F0AF8040F00100B1E0B8
:101BE0000020C4F242200021C0F88014FFF716F94B
:101BF000054600BF706A80077FF556AFFFF70EF904
:101C0000401B0228F6D9032002B0BDE8F08100BFD6
:101C10000027C4F2422700203866FFF7FFF8022DA4
:101C200005460DD13068800140F1DE80FFF7F6F8FF
:101C3000401B02284FF00300F4D902B0BDE8F08148
:101C4000306880014FD5FFF7E9F8401B02284FF0BC
:101C50000300F5D9F1E700BF40F20C00C2F200002A
:101C6000006844F6D351C1F26201A0FB0101480AA9
:101C7000019000BF00BF0198411E002801913FF470
:101C800013AF00BF0198411E002801913FF40CAF33
:101C900000BF0198411E002801913FF405AF00BF2D
:101CA0000198411E00280191E4D1FDE60021016068
:101CB000FFF7B4F8054600BF306880077FF5F1AE46
:101CC000FFF7ACF8401B02284FF00300F4D9B4E74B
:101CD0007068216A00F480328A4209D1616A00F496
:101CE0007010884204D1002002B0BDE8F08100BF2E
:101CF000012002B0BDE8F08140F004003062306A9B
:101D000040F001001EE000BF20F001003062306AA8
:101D100020F004003062FFF781F8054641F2883771
:101D2000306A800720D5FFF779F8401BB8424FF0A2
:101D30000300F5D981E700BF20F001003062306A6E
:101D400020F004003062FFF769F8054641F2883759
:101D5000306A800708D4FFF761F8401BB842F7D912
:101D6000032002B0BDE8F081B8F1000F3FF59FAE4F
:101D7000F06920F08050F06199E600BF40F48020C7
:101D80003060306840F480301CE000BF20F48030C8
:101D90003060306820F480203060FFF73FF805465F
:101DA000306880037FF55EAEFFF738F8401B64288B
:101DB0004FF00300F4D940E720F480303060306801
:101DC00020F480203060FFF729F805463068800352
:101DD0003FF548AEFFF722F8401B6428F6D90320F0
:101DE00002B0BDE8F08100BF206AB0F5803F05D1A8
:101DF0007168A26821F40031114371607168626AF0
:101E000021F4741111430843706001203866FFF714
:101E100005F80446306880013FF565AFFEF7FEFF28
:101E2000001B02284FF00300F4D906E770B528B173
:101E3000416A29B100210161142106E0012070BD31
:101E40004168B1F5827F02D01C2100224250002659
:101E5000866290F8511029B980F85060054600F06C
:101E600039F82846022180F8511090E82E0002F43B
:101E700082720C6803F4044324F040040C601A449A
:101E800005F4006305691A4405F0020345691A4424
:101E900005F001038569C4691A4405F400731A4406
:101EA00004F03803046A1A4404F08003846A1A4375
:101EB00004F400531A430A60042202EA15424A60FD
:101EC000CA6922F40062CA610121466580F8511096
:101ED000304670BD2DE9F04385B040F6000504465C
:101EE000C4F20105006805F52051002788420497D7
:101EF000CDE90277019703D005B0BDE8F08300BFBC
:101F000041F21800C4F20200016801AE41F48051B0
:101F10000160016840F21C0801F4805100910099B1
:101F20000168C4F2020841F0040101600068314612
:101F300000F0040000900098A02001900220029080
:101F4000032004902846FEF75BFE4020CDE9010700
:101F5000284631460397FEF753FE40F21805C2F2B9
:101F6000000580264FF400592846C5E90087C5E9D9
:101F70000276C5E90477C5E90679FEF7EBFD00288E
:101F800018BFFEF791FCE5646C6240F25C0508F155
:101F90001400C2F200051021002285E847002846FF
:101FA000C5E90422C5E90629FEF7D4FD002818BFBB
:101FB000FEF77AFCA5646C6205B0BDE8F083000012
:101FC0002DE9F04182B0044690F85100012819D162
:101FD00060681D4617460E46B0F5827F01D1A068A5
:101FE000A0B1FEF71BFF8046002E4FF0010018BF86
:101FF000002F03D102B0BDE8F08100BF94F850007B
:10200000012811D1022002B0BDE8F081042084F83B
:1020100051002046314632463B46009500F0CEF94D
:1020200002B0BDE8F08100BF012084F85000042018
:10203000002184F851006165A663A787E7872163C3
:10204000A186E186A2682068B2F5004F2164616430
:1020500038D00168490640D5E168E08F002944D0B6
:1020600000287BD0681C0CD11BE000BFC068A16BAE
:1020700021F8020BA163E08F0138E087E08F002890
:102080006CD020688168C907F0D1FEF7C7FEA0EBCD
:102090000800A842F2D342E0FEF7C0FEE08F00281D
:1020A0005CD020688168C907F6D0C068A16B21F8B0
:1020B000020BA163E08F0138E087E08F0028F0D1A8
:1020C0004CE000BF016821F040010160016821F48B
:1020D0008041016001684906BED4016841F04001B9
:1020E0000160E168E08F0029BAD1B8B3681C0CD157
:1020F00024E000BF007BA16B0870A06B0130A063DF
:10210000E08F0138E087E08F40B320688168C9071D
:10211000F0D1FEF783FEA0EB0800A842F3D3012024
:1021200084F85100002084F85000032002B0BDE87C
:10213000F08100BFFEF772FEE08F78B12068816801
:10214000C907F7D0007BA16B0870A06B0130A063BA
:10215000E08F0138E087E08F0028EFD16068B0F5AC
:10216000827F11D1A068B0F5004F02D0B0F5806F2A
:102170000AD12168B0F5806F0A6822F040020A6037
:1021800002D12046012101E02046802100222B4679
:10219000CDF8008001F06AFC28B1606D40F02000AD
:1021A000606520206065012084F85100002084F8DB
:1021B0005000606D002818BF012002B0BDE8F0811A
:1021C0002DE9F04182B01D4616460F460446FEF743
:1021D00025FE94F8511001290ED18046002F4FF0B2
:1021E000010018BF002E03D102B0BDE8F08100BF8E
:1021F00094F85000012803D1022002B0BDE8F0811C
:10220000012084F850000320002184F8510061650A
:102210002763A686E686A163A187E187A06821647B
:10222000B0F5004F2068616407D1016821F04001DA
:102230000160016841F4804101600168490603D4EE
:10224000016841F0400101606168731EE268B1FA03
:1022500081F1B3FA83F349095B09B2F5006F41EAF2
:10226000030139D131B137F8021BC1602763E08E19
:102270000138E086E08E002870D0681C0BD11AE08F
:10228000216B31F8022BC2602163E08E0138E086B9
:10229000E08E002862D0206881688907F0D4FEF7BC
:1022A000BDFDA0EB0800A842F2D338E0FEF7B6FD72
:1022B000E08E002852D0206881688907F6D5216B0E
:1022C00031F8022BC2602163E08E0138E086E08E97
:1022D0000028F0D142E000BF39B139780173206B9A
:1022E00001302063E08E0138E086E08EB0B3681CD8
:1022F0000BD123E0216B09780173206B013020633F
:10230000E08E0138E086E08E40B32068816889075E
:10231000F0D4FEF783FDA0EB0800A842F3D3012020
:1023200084F85100002084F85000032002B0BDE87A
:10233000F08100BFFEF772FDE08E78B12068816801
:102340008907F7D5216B09780173206B0130206371
:10235000E08E0138E086E08E0028EFD12046022191
:1023600001222B46CDF8008001F080FB40B92046C9
:10237000802100222B46CDF8008001F077FB28B1A8
:10238000606D40F02000606520206065A06838B96D
:10239000002001902068C168019180680190019837
:1023A000012084F85100002084F85000606D00285E
:1023B00018BF012002B0BDE8F08100002DE9F04314
:1023C00083B01E4615460F460446FEF727FD94F8D7
:1023D00051108146012909D1002F4FF0010018BF8B
:1023E000002D0FD103B0BDE8F08300BF6068B0F5E9
:1023F000827F0DD104294FF00200F3D1A16800299A
:10240000EAD0EFE7002EEDD094F85000012803D178
:10241000022003B0BDE8F083012084F8500094F856
:102420005100002104281CBF052084F8510061657B
:10243000A563E687A6872763E6862068A6862164CB
:1024400061640168490603D4016841F040010160FC
:102450006168731EE268B1FA81F1B3FA83F3DDF8C3
:10246000288049095B09B2F5006F41EA030165D193
:1024700031B137F8021BC1602763E08E0138E08676
:10248000012518F1010032D102E000BFFEF7C6FCC1
:10249000E08E18B9E08F002800F0B88020688168CD
:1024A00089070CD5E18E51B1012D08D1216B002592
:1024B00031F8022BC2602163E18E0139E186816827
:1024C000C907E3D0E18F0029E0D0C068A16B0125E6
:1024D00021F8020BA163E08F0138E087D6E700BF47
:1024E000FEF79CFCA0EB0900404580F0AF80E08E39
:1024F00018B9E08F002800F089802068816889077A
:102500000CD5E18E51B1012D08D1216B002531F898
:10251000022BC2602163E18E0139E1868168C9071F
:10252000DED0E18F0029DBD0C068A16B012521F846
:10253000020BA163E08F0138E087D1E739B1397828
:102540000173206B01302063E08E0138E0860125A5
:1025500018F1010032D101E0FEF760FCE08E10B905
:10256000E08F002852D02068816889070ED5E18E5F
:1025700061B1012D0AD1216B002509780173216B0E
:10258000206801312163E18E0139E1868168C90744
:10259000E2D0E18F0029DFD0C068A16B012508706F
:1025A000A06B0130A063E08F0138E087D4E700BF63
:1025B000FEF734FCA0EB0900404547D2E08E08B995
:1025C000E08F18B32068816889070ED5E18E61B16C
:1025D000012D0AD1216B002509780173216B206838
:1025E00001312163E18E0139E1868168C907DFD0BD
:1025F000E18F0029DCD0C068A16B01250870A06BB9
:102600000130A063E08F0138E087D1E72046022146
:1026100001224346CDF8009001F028FA40B9204647
:10262000802100224346CDF8009001F01FFAB8B196
:10263000606D40F02000606520206065002084F817
:102640005000012003B0BDE8F08300BF012084F8F2
:102650005100002084F85000032003B0BDE8F0834F
:10266000A06838B9002002902068C1680291806893
:1026700002900298012084F85100002084F8500054
:10268000606D002818BF012003B0BDE8F083000092
:10269000411E0020B0EB116F1CBF012070474EF2AD
:1026A0001002CEF2000251604EF62351CEF200012C
:1026B000F0230B7007219060116070477047000095
:1026C00070470000B0B582B001680A68CC684B69F9
:1026D00002F02F05202D04F0200505D125B102B010
:1026E000BDE8B04001F05EBA5FEA027C1EBF03F0B5
:1026F000010E04F4907313EB0E0341D1036BD50666
:1027000018D5012B16D114F0100313D0002201921A
:102710000A6801924A680192019A496949064BD4B4
:10272000818DC28DC38D002B18BF914240F0F48182
:1027300002B0B0BD13062DD514F080032AD090F856
:102740004120212AF4D18268B2F5805F03D1026969
:10275000002A00F06782026A531C036212784A6002
:10276000C28C013A1304C284E2D1C86820F0800010
:10277000C860C86840F04000C86002B0B0BD00BF8B
:10278000D30718BF14F4807340F0D080530700F1D2
:10279000D380D8E05206CBD514F04002C8D0CA6826
:1027A00022F04002CA60202180F8411002B0BDE84A
:1027B000B04000F09FBC00BFC16B0A68526893B282
:1027C000002BB5D0858DAB42B2D2C2858969202954
:1027D00000F0A180016851E8031F026821F48071B4
:1027E00042E80313DBB1016851E8031F026821F4DA
:1027F000807142E8031393B1016851E8031F026836
:1028000021F4807142E803134BB1016851E8031FC2
:10281000026821F4807142E80313002BDAD10168C9
:1028200051E8051F026821F0010142E80513C3B316
:10283000016851E8051F026821F0010142E8051313
:102840007BB3016851E8051F026821F0010142E8ED
:10285000051333B3016851E8051F026821F0010137
:1028600042E80513002BDAD11BE000BF016851E8F4
:10287000051F026821F0400142E80513DBB1016841
:1028800051E8051F026821F0400142E8051393B1A9
:10289000016851E8051F026821F0400142E8051374
:1028A0004BB1016851E8051F026821F0400142E880
:1028B0000513002BDAD1202180F84210002101639A
:1028C000016851E8031F026821F0100142E8031378
:1028D000DBB1016851E8031F026821F0100142E8F2
:1028E000031393B1016851E8031F026821F010013E
:1028F00042E803134BB1016851E8031F026821F05D
:10290000100142E80313002BDAD1C16B04460846DC
:10291000FDF7D0FF204602214163818DC28D891AC7
:1029200089B202B0BDE8B040FFF7C8BE436C43F0C7
:1029300001034364530706D5BEF1000F03D0436C77
:1029400043F002034364930706D5BEF1000F03D0A2
:10295000436C43F004034364BCF1000F06D55EEA08
:10296000050303D0436C43F008034364436C002B1E
:102970003FF4DEAE920605D525B1044601F012F90A
:10298000216820464969426C01F0400102F00802CA
:10299000891800F0B98000BF016851E8031F026880
:1029A00021F4907142E80313BBB3016851E8031F9F
:1029B000026821F4907142E8031373B3016851E88F
:1029C000031F026821F4907142E803132BB30168DE
:1029D00051E8031F026821F4907142E80313002BB1
:1029E000DAD11AE0016851E8051F026821F00101FF
:1029F00042E80513DBB1016851E8051F026821F0C8
:102A0000010142E8051393B1016851E8051F02680E
:102A100021F0010142E805134BB1016851E8051F9F
:102A2000026821F0010142E80513002BDAD1016BA5
:102A3000012924D1016851E8031F026821F0100127
:102A400042E80313DBB1016851E8031F026821F07B
:102A5000100142E8031393B1016851E8031F0268B3
:102A600021F0100142E803134BB1016851E8031F44
:102A7000026821F0100142E80313002BDAD1202173
:102A800080F842100021016301684969490640F15C
:102A9000C380016851E8051F026821F0400142E847
:102AA0000513DBB1016851E8051F026821F0400100
:102AB00042E8051393B1016851E8051F026821F04F
:102AC000400142E805134BB1016851E8051F026857
:102AD00021F0400142E80513002BDAD1C16B002937
:102AE00000F09A8043F69932C0F600020446084688
:102AF0004A63FDF703FF00283FF41AAEE06B416B19
:102B000002B0BDE8B04008470446FFF7D9FD0020F9
:102B1000606402B0B0BD00BF891A00BF026852E80D
:102B2000032F036822F4907243E80325BDB30268C3
:102B300052E8032F036822F4907243E8032575B32B
:102B4000026852E8032F036822F4907243E80325D9
:102B50002DB3026852E8032F036822F4907243E811
:102B60000325002DDAD11AE0026852E8052F036828
:102B700022F0010243E80525DDB1026852E8052F85
:102B8000036822F0010243E8052595B1026852E886
:102B9000052F036822F0010243E805254DB10268C4
:102BA00052E8052F036822F0010243E80525002DB5
:102BB000DAD1202280F8422000220263026852E823
:102BC000032F036822F0100243E80325DDB10268F9
:102BD00052E8032F036822F0100243E8032595B161
:102BE000026852E8032F036822F0100243E803252D
:102BF0004DB1026852E8032F036822F0100243E847
:102C00000325002DDAD1022289B2426302B0BDE869
:102C1000B040FFF753BD00BF02B0BDE8B040FFF7C2
:102C20004FBD00BF026A32F8023B6FF35F234B6077
:102C3000026295E5002804BF0120704710B50446E4
:102C400090F8410028B9002084F84000204600F0A8
:102C500063F8242084F841002068D4E90212C36894
:102C600023F40053C360036923F440531A43026101
:102C7000D4E904231143C268194341F20C639A4317
:102C80001143C1604169A26921F44071114343F6C7
:102C90000002C4F201029042416103D0FEF79EFEA1
:102CA00002E000BFFEF7AEFED4E90023192148433D
:102CB0009900B0FBF1F048F21F5CC5F2EB1CA0FBE1
:102CC0000C314FF69C734909C0F6FF7301FB0300FA
:102CD000322303EB0010A0FB0C03F02000EA53109A
:102CE00000EB0110C3F343110844906010692021E8
:102CF00020F490401061506920F02A005061D068A3
:102D000040F40050D0600020606484F8411084F8E2
:102D10004210606310BD0000F0B585B0006844F259
:102D20000041C4F2000188424FF00001CDE90311D7
:102D3000CDE9011122D043F60001C4F2010188421D
:102D400053D141F21800C4F202000168252441F475
:102D50008041016001684FF4806701F48041009177
:102D60000099016841F004010160006800F004006E
:102D7000009000984FF4007019E000BF41F2180075
:102D8000C4F202004168262441F4003141604168E8
:102D9000082701F4003100910099016841F0040115
:102DA0000160006800F00400009000980420019089
:102DB000022040F6000502900320C4F2010501AE96
:102DC000049028463146FDF71BFF0020CDE90200A4
:102DD000284631460197FDF713FF204600210022C7
:102DE000FEF7E2FC2046FEF7CDFC05B0F0BD00008A
:102DF00090F84230202B07D100294FF0010318BF73
:102E0000002A05D11846704702231846704700BFB4
:102E100000230363816222218285C285436480F896
:102E200042100169006819B1C16841F48071C16044
:102E3000416941F001014161C16841F02001C16077
:102E400018467047014641F20000C4F201000968CB
:102E500000F52052914218BF7047B0B540F2DC1522
:102E6000C2F20005B5F8001847F6FF726FF3DF31C4
:102E7000914239D0B5F8001840F2FE726FF3DF319D
:102E8000914231D8B5F80008B5F8001801306FF359
:102E9000DF3001F400410844A5F8000840F21000BA
:102EA000C2F200000078022838D0012827D1B5F8F6
:102EB0000008400423D0B5F800086FF3DF30284441
:102EC00010F8010C7D281AD140F2DC14C2F2000483
:102ED00020467B21FDF726F988B1B4F8000840F4BC
:102EE0000040A4F800080AE0B5F80018012241F4F7
:102EF0000041A5F800184FF40051FDF789FFB5F81F
:102F0000000801226FF3DF30291840F24C10C2F2A2
:102F10000000BDE8B040FFF76BBF00BFB5F8000888
:102F200047F6FC710842EAD0B5F800086FF3DF30CD
:102F3000284410F8041C0D29E1D110F8031C0A29BB
:102F4000DDD110F8021C0D29D9D110F8010C0A2886
:102F5000D5D1B5F8000840F40040A5F80008CEE748
:102F60002DE9F04381B0044690F84100202809D1B2
:102F700000294FF0010018BF002A07D101B0BDE8B9
:102F8000F08300BF022001B0BDE8F0830020606440
:102F900021201D460E4684F841001746FDF73EFFEE
:102FA000A784E784A1688146B1F5805F02D12069DA
:102FB00000285DD037460020E28C2168002A5DD0D1
:102FC0006A1C24D0002D4AD0804600BF0868000645
:102FD00008D4FDF723FFA0EB0900A8427AD82168A6
:102FE000C868F3E717B117F8010B04E038F8020BD3
:102FF00000276FF35F204860E08C0138E084E08CAC
:103000000028E3D13AE000BF0A68120609D40A6832
:10301000120606D40A6812065CBF0A685FEA0262FA
:10302000F2D51FB117F8012B05E000BF30F8022BD5
:1030300000276FF35F224A60E28C013AE284E28C5F
:10304000002AE4D11AE000BF30F8022B00276FF30A
:103050005F224A60E28C013AE284E28C72B10A6833
:10306000120635D5002FEFD017F8012BF1E700BF7E
:1030700000273046E28C2168002AA1D1086840066A
:103080001ED42DB3681C14D1086840062AD40868E1
:10309000400627D40868400624D4086840064FF04C
:1030A0000000F1D50DE000BF2068C168006840064F
:1030B00018D4FDF7B3FEA0EB0900A842F4D909E04B
:1030C0000020202184F8411001B0BDE8F08300BF4A
:1030D000FDF7A4FE0320202184F8411001B0BDE8D3
:1030E000F08300BF0020202184F8411001B0BDE82A
:1030F000F083000070470000FEE700002DE9F04774
:1031000082B0044600689A460B9D0A9E0368914669
:1031100043F48062026002680F4642F480710160ED
:1031200020464FF0011100223346009500F032F99D
:1031300050B120680068C00544BF4FF4007020649F
:10314000032002B0BDE8F08740F202082068C0F218
:10315000010807F0FE0707612046414632462B462C
:1031600000F0FEF920B1012002B0BDE8F08700BFF9
:103170000020019020682A4641690191806931460A
:1031800001900198204600F09FFAB0B92068BAF18A
:10319000010F09D04FEA19210161204631462A4624
:1031A00000F092FA48B920685FFA89F1016120467F
:1031B00031462A4600F088FA60B1206C0428D2D14A
:1031C0002068016841F400710160012002B0BDE88F
:1031D000F08700BF206800220168334641F4807107
:1031E000016020464FF00111009500F0D3F800284F
:1031F0009FD147F0010C27682046414632462B46B6
:10320000C7F810C002B0BDE8F04700F0A9B900004F
:103210002DE9F04383B0044600680F4601680A9D1B
:103220000B9E41F4807199469046016020464FF014
:10323000011100222B46009600F0ACF850B1206836
:103240000068C00544BF4FF400702064032003B041
:10325000BDE8F083206807F0FE0101610221C0F2A1
:10326000010120462A46334600F07AF920B10120B8
:1032700003B0BDE8F08300BF002002902068324612
:10328000416902918069294602900298204600F027
:103290001BFA58B1206C0428E9D12068016841F478
:1032A00000710160012003B0BDE8F0832068B9F12E
:1032B000010F0AD04FEA1821016120462946324603
:1032C00000F002FA0028E5D120685FFA88F1016178
:1032D000002003B0BDE8F08370B50368044653F8DE
:1032E000140F400711D40E46481C29D086BB00BFDE
:1032F0001868400527D4FDF791FD236853F8140F93
:10330000400737D518684007F2D5002070BD00BFD0
:1033100018684007F9D41868400514D418684007A5
:10332000F3D4186840050ED418684007EDD4186827
:10333000400508D4186840074FF0000048BF70BD32
:1033400018684005E4D56FF480601860042012E02E
:10335000154603E053F8140F4007D6D4186840050B
:10336000F1D4FDF75BFD401B2368B042F2D95869E8
:103370004007EFD4202000212022216384F83D2043
:1033800084F83E10226C10432064012084F83C1025
:1033900070BD00002DE9F041054600681E46144648
:1033A00001F47F0201338FB242D0DDF81880B2F50C
:1033B000803F40F0878040693840C01BB0FA80F001
:1033C0004009844240F0C8804EB924E0406938404A
:1033D000C01BB0FA80F04009844240F0BD80FDF788
:1033E0001DFDA0EB08012868B142EFD941693940C1
:1033F000C91BB1FA81F149098C42E7D19BE000BFBA
:1034000040693840C01BB0FA80F0400984424FF058
:10341000000040F0A280FDF701FD286841693940B5
:10342000C91BB1FA81F149098C42E9D183E000BF9F
:10343000B2F5803F24D100BF41693940C91BB1FAC0
:1034400081F149098C4240F0878041693940C91BAC
:10345000B1FA81F149098C4240F07E8041693940DE
:10346000C91BB1FA81F149098C4275D141693940D2
:10347000C91BB1FA81F149098C42DDD06CE000BF73
:1034800081693940C91BB1FA81F149098C4263D184
:1034900081693940C91BB1FA81F149098C425BD17C
:1034A00081693940C91BB1FA81F149098C4253D174
:1034B00081693940C91BB1FA81F149098C42DFD0D9
:1034C0004AE000BF80693840C01BB0FA80F0400974
:1034D000844241D146B923E080693840C01BB0FA2C
:1034E00080F04009844237D1FDF798FCA0EB080139
:1034F0002868B142F0D981693940C91BB1FA81F11C
:1035000049098C42E8D116E080693840C01BB0FA06
:1035100080F0400984424FF0000018BFBDE8F08100
:10352000FDF77CFC286881693940C91BB1FA81F13B
:1035300049098C42E8D100202021286385F83D10FC
:1035400085F83E00296C41F02001296485F83C0093
:103550000120BDE8F08100BF0020BDE8F08100003F
:10356000F0B581B0044600681D4643698FB203EA96
:103570000701B94202D1002001B0F0BD41691646F1
:1035800001323CD0490512D47EB300BFFDF746FCA2
:10359000411B2068B14203D941693940B9422BD15E
:1035A00041693940B942E6D041694905EED5016823
:1035B00041F4007101606FF48061416104200021D9
:1035C0002022216384F83D2084F83E10226C1043B1
:1035D000206484F83C10012001B0F0BD41693940FD
:1035E000B942C8D041694905E1D4FDF717FC20680C
:1035F00041693940B942F1D02020E0E741694905ED
:10360000D5D441693940B942B5D041694905CED4D4
:1036100041693940B942AED041694905C7D44169D1
:103620003940B942A7D041694905C0D44169394000
:10363000B942E3D19FE7000070B504460068154623
:1036400050F8143F5A063DD40E4629B926E000BF73
:1036500050F8141F490635D40168C90621D4FDF776
:10366000DDFB411B2068B142F2D941694906EFD424
:1036700000202021206384F83D1084F83E00206C57
:1036800040F0200018E000BFFDF7C8FB206850F8AC
:10369000141F4906ECD50168490613D40168C90610
:1036A000F2D56FF01001016000202021206384F822
:1036B0003D1084F83E00206C2064002084F83C001B
:1036C000012070BD002070BD70B50368044653F83A
:1036D000140F000611D40E46481C29D086BB00BF2B
:1036E0001868400527D4FDF799FB236853F8140F99
:1036F000000637D518680006F2D5002070BD00BF5F
:1037000018680006F9D41868400514D41868000633
:10371000F3D4186840050ED418680006EDD4186874
:10372000400508D4186800064FF0000048BF70BD7F
:1037300018684005E4D56FF480601860042012E03A
:10374000154603E053F8140F0006D6D41868400558
:10375000F1D4FDF763FB401B2368B042F2D95869EE
:103760000006EFD4202000212022216384F83D2090
:1037700084F83E10226C10432064012084F83C1031
:1037800070BD000080B582B041F21400C4F20200A6
:103790000168002241F0010101600068002100F091
:1037A0000100019001980C20FDF7FEFF0C20FDF7B1
:1037B000E9FF0D2000210022FDF7F6FF0D2002B0E9
:1037C000BDE88040FDF7DEBF2DE9F04786B0002759
:1037D00041F21800CDE90477CDE90277C4F2020086
:1037E000016840F6000A41F0100101600168C4F26E
:1037F000010A01F010010191019901680AF50065C3
:1038000041F0200101600168002201F020010191D6
:10381000019901684FF4005641F00401016001680C
:1038200001F0040101910199016841F00801016072
:1038300000684FF4005100F00800019001982846FC
:10384000FDF7E6FA5046102101224FF010084FF024
:103850000109FDF7DDFA0296112002AECDE903075A
:103860000224284631460594FDF7CAF950463146F0
:10387000CDE90289CDE90474FDF7C2F906B0BDE8CF
:10388000F087000080B540F2A00045F20041C2F28E
:103890000000C4F2000148F2A06200234FF4804C03
:1038A000C0F2010280E80E00C0E9033CC0E9053324
:1038B000C0E90733FDF7B8FA002808BF80BDBDE8AE
:1038C0008040FCF7F1BF0000B0B540F2F40043F2D5
:1038D0000001C2F20000C4F201014FF48272002321
:1038E00080E80E0000F10C014FF0020C4FF0010EC9
:1038F0004FF40074282581E808500A21C0E90645E4
:10390000C0E90833C0E90A31FEF790FA002808BF81
:10391000B0BDBDE8B040FCF7C7BF000080B540F2C5
:103920004C1043F60001C2F20000C4F20101002372
:103930004FF00C0C4FF4E13280E80E00C0E9033385
:10394000C0E905C3C361FFF775F9002808BF80BD52
:10395000BDE88040FCF7A8BF80B540F2941044F267
:103960000041C2F20000C4F2000100234FF00C0C31
:103970004FF4E13280E80E00C0E90333C0E905C32B
:10398000C361FFF757F9002808BF80BDBDE880403C
:10399000FCF78ABFFEE70000FEE70000704700006A
:1039A000F0B583B040F60004C4F2010420461021B3
:1039B00000220026FDF72CFA40F2F4059020C2F216
:1039C00000058DF806000DF10601284601220A23A4
:1039D000FEF7F6FB0DF10701284601220A238DF8B8
:1039E0000760FEF7EDFB02A9284601220A238DF8A5
:1039F0000860FEF7E5FB0DF10901284601220A23C4
:103A00008DF80960FEF7DCFB0DF10A012846012262
:103A10000A238DF80A60FEF7D3FA9DF80A700DF1BB
:103A20000B01284601220A238DF80B60FEF7C8FA25
:103A30009DF80B00102140EA072520460122FDF7E2
:103A4000E7F9ACB203A0214600F0F4F9204603B038
:103A5000F0BD00BF53504920466C61736820494453
:103A60003A203078253034580D0A00002DE9F04313
:103A700081B0089C984615460E468146FDF7CEF962
:103A8000201A00EB0804FDF7C9F940F20C01C2F25C
:103A900000010968C1F3CB3161430091D9F80010EE
:103AA0008A683240921BB2FA82F2520995423DD0A6
:103AB000074618F1010031D0FDF7B0F9C01BA04254
:103AC00038D2009800990028A1F101010091D9F89D
:103AD0000010896808BF044601EA0600801BB0FA9E
:103AE00080F040098542E7D120E000BF886830407F
:103AF000801BB0FA80F04009854217D088683040BA
:103B0000801BB0FA80F0400985420FD088683040B1
:103B1000801BB0FA80F04009854207D088683040A9
:103B2000801BB0FA80F040098542DFD1002001B04F
:103B3000BDE8F083D9E900014268B1F5827F22F047
:103B4000E00242600BD1D9F80810B1F5004F02D065
:103B5000B1F5806F03D1016821F040010160D9F80F
:103B60002810B1F5005F07D1016821F40051016010
:103B7000016841F400510160012089F851000020E2
:103B800089F85000032001B0BDE8F08370470000C1
:103B9000FDF790BD70470000406A0021C185C184D7
:103BA000FEF78EBD81B090F84210222921D18368A2
:103BB0000246B3F5805F09D152F8281F52F8183C2D
:103BC000002B63D003685B680AE000BF52F8281F2F
:103BD00013B90369002BF5D003685B6803F07F031A
:103BE0000B70116801311160C18D01390A04C18562
:103BF00002D001B0704700BF0168CA6822F02002FD
:103C0000CA60CA6822F48072CA604A6922F001025E
:103C10004A61202180F8421000214163026B012A91
:103C20003CD10163016851E8031F026821F01001D3
:103C300042E80313DBB1016851E8031F026821F079
:103C4000100142E8031393B1016851E8031F0268B1
:103C500021F0100142E803134BB1016851E8031F42
:103C6000026821F0100142E80313002BDAD1016849
:103C70000A68D20606D5002200920A6800924968B6
:103C800000910099818D01B0FEF718BD026852685D
:103C90006FF35F2221F8022B8162A5E701B0FFF7E5
:103CA000D1B8000040F24C10C2F20000FEF70ABD8D
:103CB00040F29410C2F20000FEF704BDFEE70000DF
:103CC00080B582B040F29411C2F2000109680190FF
:103CD0000868000609D4086800065CBF08685FEA47
:103CE000006002D408680006F2D540F29410C2F2D7
:103CF000000001A901224FF0FF33FFF731F90198CD
:103D000002B080BD90B0FDF7E3FC00240120CDE9B6
:103D10000B44CDE9094406900A904FF4E0104FF4AB
:103D2000803102250F9006A8CDE90714CDE90D5189
:103D3000FDF77CFE20B1EFF3108072B6FEE700BF06
:103D40000F20CDE901054FF48060CDE9040401A8FE
:103D500002210394FDF764FD20B1EFF3108072B6E9
:103D6000FEE700BF48F6DA14C0F20604FFF72CFDA8
:103D7000FFF708FDFFF786FDFFF7A6FDFFF7ECFD57
:103D8000FFF7CCFD41F20000C4F201004FF40051F6
:103D900000220025FDF73CF84FF4FA60FCF71CFF09
:103DA0000EA000F0C1FCFFF7FBFDFCF76BFC17A0B9
:103DB00000F0BAFC2046FCF7F5FC18A000F0B4FCBB
:103DC00006A80695FCF7A8FC0698A04204D116A008
:103DD000214600F02FF800BFFEE700BF0D0A3D3D71
:103DE0003D3D3D3D3D3D3D3D3D3D20426F6F746C51
:103DF0006F61646572205374617274203D3D3D3D76
:103E00003D3D3D3D3D3D3D3D0D0000000A322E2033
:103E1000415432344336342E2E2E00000A332E20E5
:103E2000524541442E2E2E0073697A653A2025753D
:103E3000200A00000FB4054B10B503A9044A0298EC
:103E400000F0DAF810BC5DF814FB0000C13C00087B
:103E50000000002002E008C8121F08C1002AFAD1A1
:103E600070477047002001E001C1121F002AFBD1FA
:103E7000704700002DE9FF5F82B00021DDE90430CA
:103E8000020DDDF840B0034318D044F61050A2F202
:103E9000FF3242431514119801281FD0A5EB0B00E7
:103EA000401C5FEA000A4FF000064E4FDFF83891E1
:103EB000B046504615D5CAF1000413E0119801240C
:103EC0004AA3012801D16FEA0B010298119AC0E9B7
:103ED0000031C0E9024206B0BDE8F09FCBF100001E
:103EE000DFE704460021404A491842EB0450CDE97F
:103EF000001012E0E00707D032463B4640464946F4
:103F0000FCF708FA8046894632463B461046194679
:103F1000FCF700FA06460F466410002CEAD1DDE9F2
:103F20000401DDE90023BAF1000F06DAFCF7F2F92B
:103F300042464B46FCF7EEF905E0FCF75DFA4246D7
:103F40004B46FCF759FA04460E460022284BFCF774
:103F5000DBFA03D84FF0FF30014607E00022254B83
:103F600020463146FCF72FF9FCF7B5FA102409E09A
:103F7000002C0ADB0A220023FCF7F4F8039B303202
:103F80001A55641E50EA0102F2D1641C039AC4F16E
:103F900011031444119A012A03D0012208430DD1C0
:103FA0000AE0084304D000204FF0110B119072E793
:103FB000A3EB0B056D1E0DE05B4504DD4FF0000229
:103FC00005F1010504E003DA4FF00002A5F1010557
:103FD000002AECD002981199C0E90231C0E90045ED
:103FE00079E70000000014400000F03F30000000BE
:103FF0000000F0430000E03F2DE9FF4F95B09B46E5
:104000008946064600250FE2252877D10024274659
:10401000F84A0121059400E0044316F8013F203BD3
:1040200001FA03F01042F7D130782A2811D06FF04E
:104030002F033078A0F13002092A16D8059A44F0EF
:10404000020402EB820203EB42021044761C05904C
:10405000EFE759F8042B0592002A03DA504244F4A2
:104060000054059044F00204761C30782E2816D1B6
:1040700016F8010F44F004042A280DD06FF02F0227
:104080003078A0F13003092B09D807EB870302EB46
:104090004303C718761CF3E759F8047B761C307885
:1040A0006C280FD006DC4C2817D068280DD06A2861
:1040B00014D104E0742810D07A280FD10DE044F414
:1040C00000140AE044F4801401E044F440147278CF
:1040D000824202D104F58014761C761C3078662862
:1040E0000BD013DC582877D009DC002875D0452880
:1040F000F6D04628F4D047281AD19DE118E063286D
:1041000035D0642879D0652812D195E1702873D014
:1041100008DC6728F1D069286FD06E280DD06F2891
:1041200006D1B5E073282CD0752875D0782874D0C6
:104130005A46179990476D1C75E1C4F30250022846
:1041400009D003280DD0D9F8001004280DD00D6037
:1041500009F1040967E1D9F80010EA17C1E9005232
:10416000F6E7D9F800100D80F2E70D70F0E719F8C6
:10417000041B8DF8001000208DF80100EA46012094
:1041800003E059F804AB4FF0FF3061074FF0000136
:1041900002D40DE008F101018846B9420FDA8045EA
:1041A000F8DB1AF808100029F4D108E008F1010141
:1041B00088468142FADB1AF808100029F6D10598E2
:1041C0005B46A0EB080721463846179A00F094FAA0
:1041D000284400EB080507E04DE029E10DE01AF85E
:1041E000010B5A4617999047B8F10108F7D25B4680
:1041F00021463846179A13E142E00A220092C4F39E
:1042000002524FF0000A022A08D059F804CB032AC0
:104210004FEAEC710AD00DE029E02AE009F107012C
:1042200021F00702F2E802C1914609E00FFA8CFC86
:104230004FEAEC71042A03D14FFA8CFC4FEAEC717F
:10424000002907DA0A460021DCF1000C61EB0201CB
:104250002D2202E0220504D52B228DF80420012214
:1042600003E0E20701D02022F7E7904659E00A2157
:1042700002E010220DE010214FF0000A00910BE047
:1042800010224FF0000A44F004040827009203E0D3
:1042900008224FF0000A0092C4F30252022A05D00D
:1042A00059F804CB0021032A08D009E009F10701DD
:1042B00021F00702F2E802C1914605E01FFA8CFCEA
:1042C000042A01D10CF0FF0C4FF00008220728D57A
:1042D000702806D0009B83F0100353EA0A0305D030
:1042E0000EE040228DF80420012208E05CEA010281
:1042F00006D030228DF804208DF805000222904669
:10430000009B83F0080353EA0A030AD15CEA010226
:1043100001D1620705D530228DF804204FF0010845
:104320007F1E582804D034A003900EA802900DE000
:1043300036A0F9E753466046009AFBF713FF844620
:104340000398825C0298401E029002705CEA0100B1
:10435000F0D1029806A9081A00F1200A600702D5D8
:1043600024F4803400E00127574502DDA7EB0A0062
:1043700000E0002000EB0A01009005984144401A3B
:104380000590E00306D45B462146179A059800F095
:10439000B3F90544002706E001A85A46C05D179905
:1043A00090476D1C7F1C4745F6DBE0030CD55B4650
:1043B0002146179A059800F09FF9054404E0302043
:1043C0005A46179990476D1C0099481E0090002985
:1043D000F5DC08E0029802995A460078491C0291DF
:1043E000179990476D1CBAF10001AAF1010AF1DC9E
:1043F00065E10000092801003031323334353637A9
:104400003839616263646566000000003031323320
:1044100034353637383941424344454600000000C0
:1044200000F058F90544761C307800287FF4ECAD94
:1044300019B02846BDE8F08F620700D4062709F1BD
:10444000070222F0070CFCE80223E14603F00048D3
:104450005FEA080C02D00FF2702C0DE05FEA045CFA
:1044600002D50FF2682C07E05FEAC47C02D00FF29D
:10447000602C01E0AFF2700C4FF0FF3823F00043E6
:10448000CDF850C065280CD006DC452809D0462858
:104490001DD047283DD13DE0662818D067287ED141
:1044A00038E00021112F01DB112000E0781CCDE95C
:1044B000000106A90EA8FFF7DDFCDDE90F010E9A49
:1044C00003910021009207F1010A04914DE04FF0A1
:1044D00000400097CDE9011006A90EA8FFF7CAFC1D
:1044E000DDE90F0203920E9B11990022DDF80CA06A
:1044F0000093049211B9791C00EB010AB7EB0A0092
:1045000004D4C0F1FF3007F1010A0490AAEB0700C0
:10451000019044E0012F00DA01270021112F01DD75
:10452000112000E03846CDE9000106A90EA8FFF7EA
:10453000A1FCDDE90F010E9A039100210491009284
:10454000BA4621070CD40399514500DA8A46BAF1DC
:10455000010F05DD009AAAF10101515C302908D054
:10456000B84202DA10F1040F06DA0121CDE9011098
:1045700015E0AAF10101E9E7002805DC04990144EE
:104580000491AAEB000102E0411C514500DD8A467E
:104590000499401A401C01904FF0004002902007FF
:1045A00004D40198504501DBCDF8048000208DF83B
:1045B0004F0002980DF14F07B0F1004F25D02B208E
:1045C0000E9002984FF0020800280CDA4042029048
:1045D0002D200E9007E00A210298FBF7ADFD303147
:1045E000029007F8011DB8F10001A8F10108F2DC02
:1045F00002980028EFD1791E0E980870307800F0EC
:10460000200040F0450007F8020D12A8C01B00F181
:1046100007081498007800B1012000EB0A01019806
:1046200001EBE07105984144401A401E0590E003FB
:1046300006D45B462146179A059800F05DF80544BC
:104640001498007818B15A46179990476D1CE003EA
:1046500024D55B462146179A059800F04DF805448D
:104660001CE00498002807DBDDE90301884203DD34
:104670000098405C179901E0179930205A469047FE
:10468000049805F10105401C04900198401E01901A
:1046900004D12E205A46179990476D1CBAF100019B
:1046A000AAF1010ADDDC05E017F8010B5A4617995B
:1046B00090476D1CB8F10001A8F10108F4DC5B46DD
:1046C0002146179A0598ABE62D0000002B0000004C
:1046D000200000002DE9F041044600251E46174643
:1046E000880404D405E039462020B0476D1C641EC0
:1046F000F9D52846BDE8F0812DE9F04104460025B2
:104700001E469046C80301D5302700E020278804C4
:1047100004D505E041463846B0476D1C641EF9D506
:104720002846BDE8F081000010B5044601E0FFF71F
:10473000C7FA14F8010B04490028F8D1BDE810406D
:104740000A20FFF7BDBA00000000002000000000B2
:104750000000000001020304060708090000000031
:1047600001020304010202030405060708090A0BFB
:104770000C0D0E0F10104154323443363420E588AE
:104780009DE5A78BE58C96E5A4B1E8B4A5EFBC88C0
:10479000E9878DE8AF952564E6ACA1E5908EE4BB92
:1047A0008DE69CAAE6A380E6B58BE588B0E88AAFE3
:1047B000E78987EFBC89EFBC810D0A00E4BB8E411D
:1047C000543234433634E59CB0E59D803A2030784D
:1047D0002530345820E8AFBBE58F96E5AD97E88AE1
:1047E000823A2030782530325820307825303258BF
:1047F00020307825303258203078253032580A0061
:10480000204800080000002010000000543E00086E
:104810003048000810000020D80D0000643E000859
:1048200000000000010000001000000000127A00EB
:04000005080000ED02
:00000001FF
